{
  "contractName": "NFT",
  "abi": [
    {
      "inputs": [
        {
          "internalType": "address",
          "name": "marketplaceAddress",
          "type": "address"
        }
      ],
      "stateMutability": "nonpayable",
      "type": "constructor"
    },
    {
      "anonymous": false,
      "inputs": [
        {
          "indexed": true,
          "internalType": "address",
          "name": "owner",
          "type": "address"
        },
        {
          "indexed": true,
          "internalType": "address",
          "name": "approved",
          "type": "address"
        },
        {
          "indexed": true,
          "internalType": "uint256",
          "name": "tokenId",
          "type": "uint256"
        }
      ],
      "name": "Approval",
      "type": "event"
    },
    {
      "anonymous": false,
      "inputs": [
        {
          "indexed": true,
          "internalType": "address",
          "name": "owner",
          "type": "address"
        },
        {
          "indexed": true,
          "internalType": "address",
          "name": "operator",
          "type": "address"
        },
        {
          "indexed": false,
          "internalType": "bool",
          "name": "approved",
          "type": "bool"
        }
      ],
      "name": "ApprovalForAll",
      "type": "event"
    },
    {
      "anonymous": false,
      "inputs": [
        {
          "indexed": true,
          "internalType": "address",
          "name": "from",
          "type": "address"
        },
        {
          "indexed": true,
          "internalType": "address",
          "name": "to",
          "type": "address"
        },
        {
          "indexed": true,
          "internalType": "uint256",
          "name": "tokenId",
          "type": "uint256"
        }
      ],
      "name": "Transfer",
      "type": "event"
    },
    {
      "inputs": [
        {
          "internalType": "address",
          "name": "to",
          "type": "address"
        },
        {
          "internalType": "uint256",
          "name": "tokenId",
          "type": "uint256"
        }
      ],
      "name": "approve",
      "outputs": [],
      "stateMutability": "nonpayable",
      "type": "function"
    },
    {
      "inputs": [
        {
          "internalType": "address",
          "name": "owner",
          "type": "address"
        }
      ],
      "name": "balanceOf",
      "outputs": [
        {
          "internalType": "uint256",
          "name": "",
          "type": "uint256"
        }
      ],
      "stateMutability": "view",
      "type": "function",
      "constant": true
    },
    {
      "inputs": [
        {
          "internalType": "uint256",
          "name": "tokenId",
          "type": "uint256"
        }
      ],
      "name": "getApproved",
      "outputs": [
        {
          "internalType": "address",
          "name": "",
          "type": "address"
        }
      ],
      "stateMutability": "view",
      "type": "function",
      "constant": true
    },
    {
      "inputs": [
        {
          "internalType": "address",
          "name": "owner",
          "type": "address"
        },
        {
          "internalType": "address",
          "name": "operator",
          "type": "address"
        }
      ],
      "name": "isApprovedForAll",
      "outputs": [
        {
          "internalType": "bool",
          "name": "",
          "type": "bool"
        }
      ],
      "stateMutability": "view",
      "type": "function",
      "constant": true
    },
    {
      "inputs": [],
      "name": "name",
      "outputs": [
        {
          "internalType": "string",
          "name": "",
          "type": "string"
        }
      ],
      "stateMutability": "view",
      "type": "function",
      "constant": true
    },
    {
      "inputs": [
        {
          "internalType": "uint256",
          "name": "tokenId",
          "type": "uint256"
        }
      ],
      "name": "ownerOf",
      "outputs": [
        {
          "internalType": "address",
          "name": "",
          "type": "address"
        }
      ],
      "stateMutability": "view",
      "type": "function",
      "constant": true
    },
    {
      "inputs": [
        {
          "internalType": "address",
          "name": "from",
          "type": "address"
        },
        {
          "internalType": "address",
          "name": "to",
          "type": "address"
        },
        {
          "internalType": "uint256",
          "name": "tokenId",
          "type": "uint256"
        }
      ],
      "name": "safeTransferFrom",
      "outputs": [],
      "stateMutability": "nonpayable",
      "type": "function"
    },
    {
      "inputs": [
        {
          "internalType": "address",
          "name": "from",
          "type": "address"
        },
        {
          "internalType": "address",
          "name": "to",
          "type": "address"
        },
        {
          "internalType": "uint256",
          "name": "tokenId",
          "type": "uint256"
        },
        {
          "internalType": "bytes",
          "name": "_data",
          "type": "bytes"
        }
      ],
      "name": "safeTransferFrom",
      "outputs": [],
      "stateMutability": "nonpayable",
      "type": "function"
    },
    {
      "inputs": [
        {
          "internalType": "address",
          "name": "operator",
          "type": "address"
        },
        {
          "internalType": "bool",
          "name": "approved",
          "type": "bool"
        }
      ],
      "name": "setApprovalForAll",
      "outputs": [],
      "stateMutability": "nonpayable",
      "type": "function"
    },
    {
      "inputs": [
        {
          "internalType": "bytes4",
          "name": "interfaceId",
          "type": "bytes4"
        }
      ],
      "name": "supportsInterface",
      "outputs": [
        {
          "internalType": "bool",
          "name": "",
          "type": "bool"
        }
      ],
      "stateMutability": "view",
      "type": "function",
      "constant": true
    },
    {
      "inputs": [],
      "name": "symbol",
      "outputs": [
        {
          "internalType": "string",
          "name": "",
          "type": "string"
        }
      ],
      "stateMutability": "view",
      "type": "function",
      "constant": true
    },
    {
      "inputs": [
        {
          "internalType": "uint256",
          "name": "tokenId",
          "type": "uint256"
        }
      ],
      "name": "tokenURI",
      "outputs": [
        {
          "internalType": "string",
          "name": "",
          "type": "string"
        }
      ],
      "stateMutability": "view",
      "type": "function",
      "constant": true
    },
    {
      "inputs": [
        {
          "internalType": "address",
          "name": "from",
          "type": "address"
        },
        {
          "internalType": "address",
          "name": "to",
          "type": "address"
        },
        {
          "internalType": "uint256",
          "name": "tokenId",
          "type": "uint256"
        }
      ],
      "name": "transferFrom",
      "outputs": [],
      "stateMutability": "nonpayable",
      "type": "function"
    },
    {
      "inputs": [
        {
          "internalType": "string",
          "name": "nftTokenURl",
          "type": "string"
        }
      ],
      "name": "createNFtToken",
      "outputs": [
        {
          "internalType": "uint256",
          "name": "",
          "type": "uint256"
        }
      ],
      "stateMutability": "nonpayable",
      "type": "function"
    }
  ],
  "bytecode": "0x60806040523480156200001157600080fd5b5060405162002eca38038062002eca833981810160405281019062000037919062000239565b6040518060400160405280600981526020017f6172616269634e467400000000000000000000000000000000000000000000008152506040518060400160405280600581526020017f61724e46540000000000000000000000000000000000000000000000000000008152508160009080519060200190620000bb9291906200011f565b508060019080519060200190620000d49291906200011f565b50505080600860006101000a81548173ffffffffffffffffffffffffffffffffffffffff021916908373ffffffffffffffffffffffffffffffffffffffff16021790555050620002d0565b8280546200012d906200029a565b90600052602060002090601f0160209004810192826200015157600085556200019d565b82601f106200016c57805160ff19168380011785556200019d565b828001600101855582156200019d579182015b828111156200019c5782518255916020019190600101906200017f565b5b509050620001ac9190620001b0565b5090565b5b80821115620001cb576000816000905550600101620001b1565b5090565b600080fd5b600073ffffffffffffffffffffffffffffffffffffffff82169050919050565b60006200020182620001d4565b9050919050565b6200021381620001f4565b81146200021f57600080fd5b50565b600081519050620002338162000208565b92915050565b600060208284031215620002525762000251620001cf565b5b6000620002628482850162000222565b91505092915050565b7f4e487b7100000000000000000000000000000000000000000000000000000000600052602260045260246000fd5b60006002820490506001821680620002b357607f821691505b60208210811415620002ca57620002c96200026b565b5b50919050565b612bea80620002e06000396000f3fe608060405234801561001057600080fd5b50600436106100ea5760003560e01c806370a082311161008c578063b88d4fde11610066578063b88d4fde1461025b578063c87b56dd14610277578063cb18ee7b146102a7578063e985e9c5146102d7576100ea565b806370a08231146101f157806395d89b4114610221578063a22cb4651461023f576100ea565b8063095ea7b3116100c8578063095ea7b31461016d57806323b872dd1461018957806342842e0e146101a55780636352211e146101c1576100ea565b806301ffc9a7146100ef57806306fdde031461011f578063081812fc1461013d575b600080fd5b6101096004803603810190610104919061195f565b610307565b60405161011691906119a7565b60405180910390f35b6101276103e9565b6040516101349190611a5b565b60405180910390f35b61015760048036038101906101529190611ab3565b61047b565b6040516101649190611b21565b60405180910390f35b61018760048036038101906101829190611b68565b610500565b005b6101a3600480360381019061019e9190611ba8565b610618565b005b6101bf60048036038101906101ba9190611ba8565b610678565b005b6101db60048036038101906101d69190611ab3565b610698565b6040516101e89190611b21565b60405180910390f35b61020b60048036038101906102069190611bfb565b61074a565b6040516102189190611c37565b60405180910390f35b610229610802565b6040516102369190611a5b565b60405180910390f35b61025960048036038101906102549190611c7e565b610894565b005b61027560048036038101906102709190611df3565b6108aa565b005b610291600480360381019061028c9190611ab3565b61090c565b60405161029e9190611a5b565b60405180910390f35b6102c160048036038101906102bc9190611f17565b610a5e565b6040516102ce9190611c37565b60405180910390f35b6102f160048036038101906102ec9190611f60565b610ac2565b6040516102fe91906119a7565b60405180910390f35b60007f80ac58cd000000000000000000000000000000000000000000000000000000007bffffffffffffffffffffffffffffffffffffffffffffffffffffffff1916827bffffffffffffffffffffffffffffffffffffffffffffffffffffffff191614806103d257507f5b5e139f000000000000000000000000000000000000000000000000000000007bffffffffffffffffffffffffffffffffffffffffffffffffffffffff1916827bffffffffffffffffffffffffffffffffffffffffffffffffffffffff1916145b806103e257506103e182610b56565b5b9050919050565b6060600080546103f890611fcf565b80601f016020809104026020016040519081016040528092919081815260200182805461042490611fcf565b80156104715780601f1061044657610100808354040283529160200191610471565b820191906000526020600020905b81548152906001019060200180831161045457829003601f168201915b5050505050905090565b600061048682610bc0565b6104c5576040517f08c379a00000000000000000000000000000000000000000000000000000000081526004016104bc90612073565b60405180910390fd5b6004600083815260200190815260200160002060009054906101000a900473ffffffffffffffffffffffffffffffffffffffff169050919050565b600061050b82610698565b90508073ffffffffffffffffffffffffffffffffffffffff168373ffffffffffffffffffffffffffffffffffffffff16141561057c576040517f08c379a000000000000000000000000000000000000000000000000000000000815260040161057390612105565b60405180910390fd5b8073ffffffffffffffffffffffffffffffffffffffff1661059b610c2c565b73ffffffffffffffffffffffffffffffffffffffff1614806105ca57506105c9816105c4610c2c565b610ac2565b5b610609576040517f08c379a000000000000000000000000000000000000000000000000000000000815260040161060090612197565b60405180910390fd5b6106138383610c34565b505050565b610629610623610c2c565b82610ced565b610668576040517f08c379a000000000000000000000000000000000000000000000000000000000815260040161065f90612229565b60405180910390fd5b610673838383610dcb565b505050565b610693838383604051806020016040528060008152506108aa565b505050565b6000806002600084815260200190815260200160002060009054906101000a900473ffffffffffffffffffffffffffffffffffffffff169050600073ffffffffffffffffffffffffffffffffffffffff168173ffffffffffffffffffffffffffffffffffffffff161415610741576040517f08c379a0000000000000000000000000000000000000000000000000000000008152600401610738906122bb565b60405180910390fd5b80915050919050565b60008073ffffffffffffffffffffffffffffffffffffffff168273ffffffffffffffffffffffffffffffffffffffff1614156107bb576040517f08c379a00000000000000000000000000000000000000000000000000000000081526004016107b29061234d565b60405180910390fd5b600360008373ffffffffffffffffffffffffffffffffffffffff1673ffffffffffffffffffffffffffffffffffffffff168152602001908152602001600020549050919050565b60606001805461081190611fcf565b80601f016020809104026020016040519081016040528092919081815260200182805461083d90611fcf565b801561088a5780601f1061085f5761010080835404028352916020019161088a565b820191906000526020600020905b81548152906001019060200180831161086d57829003601f168201915b5050505050905090565b6108a661089f610c2c565b8383611032565b5050565b6108bb6108b5610c2c565b83610ced565b6108fa576040517f08c379a00000000000000000000000000000000000000000000000000000000081526004016108f190612229565b60405180910390fd5b6109068484848461119f565b50505050565b606061091782610bc0565b610956576040517f08c379a000000000000000000000000000000000000000000000000000000000815260040161094d906123df565b60405180910390fd5b600060066000848152602001908152602001600020805461097690611fcf565b80601f01602080910402602001604051908101604052809291908181526020018280546109a290611fcf565b80156109ef5780601f106109c4576101008083540402835291602001916109ef565b820191906000526020600020905b8154815290600101906020018083116109d257829003601f168201915b505050505090506000610a006111fb565b9050600081511415610a16578192505050610a59565b600082511115610a4b578082604051602001610a3392919061243b565b60405160208183030381529060405292505050610a59565b610a5484611212565b925050505b919050565b6000610a6a60076112b9565b6000610a7660076112cf565b9050610a8233826112dd565b610a8c81846114b7565b610ab9600860009054906101000a900473ffffffffffffffffffffffffffffffffffffffff166001610894565b80915050919050565b6000600560008473ffffffffffffffffffffffffffffffffffffffff1673ffffffffffffffffffffffffffffffffffffffff16815260200190815260200160002060008373ffffffffffffffffffffffffffffffffffffffff1673ffffffffffffffffffffffffffffffffffffffff16815260200190815260200160002060009054906101000a900460ff16905092915050565b60007f01ffc9a7000000000000000000000000000000000000000000000000000000007bffffffffffffffffffffffffffffffffffffffffffffffffffffffff1916827bffffffffffffffffffffffffffffffffffffffffffffffffffffffff1916149050919050565b60008073ffffffffffffffffffffffffffffffffffffffff166002600084815260200190815260200160002060009054906101000a900473ffffffffffffffffffffffffffffffffffffffff1673ffffffffffffffffffffffffffffffffffffffff1614159050919050565b600033905090565b816004600083815260200190815260200160002060006101000a81548173ffffffffffffffffffffffffffffffffffffffff021916908373ffffffffffffffffffffffffffffffffffffffff160217905550808273ffffffffffffffffffffffffffffffffffffffff16610ca783610698565b73ffffffffffffffffffffffffffffffffffffffff167f8c5be1e5ebec7d5bd14f71427d1e84f3dd0314c0f7b2291e5b200ac8c7c3b92560405160405180910390a45050565b6000610cf882610bc0565b610d37576040517f08c379a0000000000000000000000000000000000000000000000000000000008152600401610d2e906124d1565b60405180910390fd5b6000610d4283610698565b90508073ffffffffffffffffffffffffffffffffffffffff168473ffffffffffffffffffffffffffffffffffffffff161480610d845750610d838185610ac2565b5b80610dc257508373ffffffffffffffffffffffffffffffffffffffff16610daa8461047b565b73ffffffffffffffffffffffffffffffffffffffff16145b91505092915050565b8273ffffffffffffffffffffffffffffffffffffffff16610deb82610698565b73ffffffffffffffffffffffffffffffffffffffff1614610e41576040517f08c379a0000000000000000000000000000000000000000000000000000000008152600401610e3890612563565b60405180910390fd5b600073ffffffffffffffffffffffffffffffffffffffff168273ffffffffffffffffffffffffffffffffffffffff161415610eb1576040517f08c379a0000000000000000000000000000000000000000000000000000000008152600401610ea8906125f5565b60405180910390fd5b610ebc83838361152b565b610ec7600082610c34565b6001600360008573ffffffffffffffffffffffffffffffffffffffff1673ffffffffffffffffffffffffffffffffffffffff1681526020019081526020016000206000828254610f179190612644565b925050819055506001600360008473ffffffffffffffffffffffffffffffffffffffff1673ffffffffffffffffffffffffffffffffffffffff1681526020019081526020016000206000828254610f6e9190612678565b92505081905550816002600083815260200190815260200160002060006101000a81548173ffffffffffffffffffffffffffffffffffffffff021916908373ffffffffffffffffffffffffffffffffffffffff160217905550808273ffffffffffffffffffffffffffffffffffffffff168473ffffffffffffffffffffffffffffffffffffffff167fddf252ad1be2c89b69c2b068fc378daa952ba7f163c4a11628f55a4df523b3ef60405160405180910390a461102d838383611530565b505050565b8173ffffffffffffffffffffffffffffffffffffffff168373ffffffffffffffffffffffffffffffffffffffff1614156110a1576040517f08c379a00000000000000000000000000000000000000000000000000000000081526004016110989061271a565b60405180910390fd5b80600560008573ffffffffffffffffffffffffffffffffffffffff1673ffffffffffffffffffffffffffffffffffffffff16815260200190815260200160002060008473ffffffffffffffffffffffffffffffffffffffff1673ffffffffffffffffffffffffffffffffffffffff16815260200190815260200160002060006101000a81548160ff0219169083151502179055508173ffffffffffffffffffffffffffffffffffffffff168373ffffffffffffffffffffffffffffffffffffffff167f17307eab39ab6107e8899845ad3d59bd9653f200f220920489ca2b5937696c318360405161119291906119a7565b60405180910390a3505050565b6111aa848484610dcb565b6111b684848484611535565b6111f5576040517f08c379a00000000000000000000000000000000000000000000000000000000081526004016111ec906127ac565b60405180910390fd5b50505050565b606060405180602001604052806000815250905090565b606061121d82610bc0565b61125c576040517f08c379a00000000000000000000000000000000000000000000000000000000081526004016112539061283e565b60405180910390fd5b60006112666111fb565b9050600081511161128657604051806020016040528060008152506112b1565b80611290846116cc565b6040516020016112a192919061243b565b6040516020818303038152906040525b915050919050565b6001816000016000828254019250508190555050565b600081600001549050919050565b600073ffffffffffffffffffffffffffffffffffffffff168273ffffffffffffffffffffffffffffffffffffffff16141561134d576040517f08c379a0000000000000000000000000000000000000000000000000000000008152600401611344906128aa565b60405180910390fd5b61135681610bc0565b15611396576040517f08c379a000000000000000000000000000000000000000000000000000000000815260040161138d90612916565b60405180910390fd5b6113a26000838361152b565b6001600360008473ffffffffffffffffffffffffffffffffffffffff1673ffffffffffffffffffffffffffffffffffffffff16815260200190815260200160002060008282546113f29190612678565b92505081905550816002600083815260200190815260200160002060006101000a81548173ffffffffffffffffffffffffffffffffffffffff021916908373ffffffffffffffffffffffffffffffffffffffff160217905550808273ffffffffffffffffffffffffffffffffffffffff16600073ffffffffffffffffffffffffffffffffffffffff167fddf252ad1be2c89b69c2b068fc378daa952ba7f163c4a11628f55a4df523b3ef60405160405180910390a46114b360008383611530565b5050565b6114c082610bc0565b6114ff576040517f08c379a00000000000000000000000000000000000000000000000000000000081526004016114f6906129a8565b60405180910390fd5b80600660008481526020019081526020016000209080519060200190611526929190611850565b505050565b505050565b505050565b60006115568473ffffffffffffffffffffffffffffffffffffffff1661182d565b156116bf578373ffffffffffffffffffffffffffffffffffffffff1663150b7a0261157f610c2c565b8786866040518563ffffffff1660e01b81526004016115a19493929190612a1d565b602060405180830381600087803b1580156115bb57600080fd5b505af19250505080156115ec57506040513d601f19601f820116820180604052508101906115e99190612a7e565b60015b61166f573d806000811461161c576040519150601f19603f3d011682016040523d82523d6000602084013e611621565b606091505b50600081511415611667576040517f08c379a000000000000000000000000000000000000000000000000000000000815260040161165e906127ac565b60405180910390fd5b805181602001fd5b63150b7a0260e01b7bffffffffffffffffffffffffffffffffffffffffffffffffffffffff1916817bffffffffffffffffffffffffffffffffffffffffffffffffffffffff1916149150506116c4565b600190505b949350505050565b60606000821415611714576040518060400160405280600181526020017f30000000000000000000000000000000000000000000000000000000000000008152509050611828565b600082905060005b6000821461174657808061172f90612aab565b915050600a8261173f9190612b23565b915061171c565b60008167ffffffffffffffff81111561176257611761611cc8565b5b6040519080825280601f01601f1916602001820160405280156117945781602001600182028036833780820191505090505b5090505b60008514611821576001826117ad9190612644565b9150600a856117bc9190612b54565b60306117c89190612678565b60f81b8183815181106117de576117dd612b85565b5b60200101907effffffffffffffffffffffffffffffffffffffffffffffffffffffffffffff1916908160001a905350600a8561181a9190612b23565b9450611798565b8093505050505b919050565b6000808273ffffffffffffffffffffffffffffffffffffffff163b119050919050565b82805461185c90611fcf565b90600052602060002090601f01602090048101928261187e57600085556118c5565b82601f1061189757805160ff19168380011785556118c5565b828001600101855582156118c5579182015b828111156118c45782518255916020019190600101906118a9565b5b5090506118d291906118d6565b5090565b5b808211156118ef5760008160009055506001016118d7565b5090565b6000604051905090565b600080fd5b600080fd5b60007fffffffff0000000000000000000000000000000000000000000000000000000082169050919050565b61193c81611907565b811461194757600080fd5b50565b60008135905061195981611933565b92915050565b600060208284031215611975576119746118fd565b5b60006119838482850161194a565b91505092915050565b60008115159050919050565b6119a18161198c565b82525050565b60006020820190506119bc6000830184611998565b92915050565b600081519050919050565b600082825260208201905092915050565b60005b838110156119fc5780820151818401526020810190506119e1565b83811115611a0b576000848401525b50505050565b6000601f19601f8301169050919050565b6000611a2d826119c2565b611a3781856119cd565b9350611a478185602086016119de565b611a5081611a11565b840191505092915050565b60006020820190508181036000830152611a758184611a22565b905092915050565b6000819050919050565b611a9081611a7d565b8114611a9b57600080fd5b50565b600081359050611aad81611a87565b92915050565b600060208284031215611ac957611ac86118fd565b5b6000611ad784828501611a9e565b91505092915050565b600073ffffffffffffffffffffffffffffffffffffffff82169050919050565b6000611b0b82611ae0565b9050919050565b611b1b81611b00565b82525050565b6000602082019050611b366000830184611b12565b92915050565b611b4581611b00565b8114611b5057600080fd5b50565b600081359050611b6281611b3c565b92915050565b60008060408385031215611b7f57611b7e6118fd565b5b6000611b8d85828601611b53565b9250506020611b9e85828601611a9e565b9150509250929050565b600080600060608486031215611bc157611bc06118fd565b5b6000611bcf86828701611b53565b9350506020611be086828701611b53565b9250506040611bf186828701611a9e565b9150509250925092565b600060208284031215611c1157611c106118fd565b5b6000611c1f84828501611b53565b91505092915050565b611c3181611a7d565b82525050565b6000602082019050611c4c6000830184611c28565b92915050565b611c5b8161198c565b8114611c6657600080fd5b50565b600081359050611c7881611c52565b92915050565b60008060408385031215611c9557611c946118fd565b5b6000611ca385828601611b53565b9250506020611cb485828601611c69565b9150509250929050565b600080fd5b600080fd5b7f4e487b7100000000000000000000000000000000000000000000000000000000600052604160045260246000fd5b611d0082611a11565b810181811067ffffffffffffffff82111715611d1f57611d1e611cc8565b5b80604052505050565b6000611d326118f3565b9050611d3e8282611cf7565b919050565b600067ffffffffffffffff821115611d5e57611d5d611cc8565b5b611d6782611a11565b9050602081019050919050565b82818337600083830152505050565b6000611d96611d9184611d43565b611d28565b905082815260208101848484011115611db257611db1611cc3565b5b611dbd848285611d74565b509392505050565b600082601f830112611dda57611dd9611cbe565b5b8135611dea848260208601611d83565b91505092915050565b60008060008060808587031215611e0d57611e0c6118fd565b5b6000611e1b87828801611b53565b9450506020611e2c87828801611b53565b9350506040611e3d87828801611a9e565b925050606085013567ffffffffffffffff811115611e5e57611e5d611902565b5b611e6a87828801611dc5565b91505092959194509250565b600067ffffffffffffffff821115611e9157611e90611cc8565b5b611e9a82611a11565b9050602081019050919050565b6000611eba611eb584611e76565b611d28565b905082815260208101848484011115611ed657611ed5611cc3565b5b611ee1848285611d74565b509392505050565b600082601f830112611efe57611efd611cbe565b5b8135611f0e848260208601611ea7565b91505092915050565b600060208284031215611f2d57611f2c6118fd565b5b600082013567ffffffffffffffff811115611f4b57611f4a611902565b5b611f5784828501611ee9565b91505092915050565b60008060408385031215611f7757611f766118fd565b5b6000611f8585828601611b53565b9250506020611f9685828601611b53565b9150509250929050565b7f4e487b7100000000000000000000000000000000000000000000000000000000600052602260045260246000fd5b60006002820490506001821680611fe757607f821691505b60208210811415611ffb57611ffa611fa0565b5b50919050565b7f4552433732313a20617070726f76656420717565727920666f72206e6f6e657860008201527f697374656e7420746f6b656e0000000000000000000000000000000000000000602082015250565b600061205d602c836119cd565b915061206882612001565b604082019050919050565b6000602082019050818103600083015261208c81612050565b9050919050565b7f4552433732313a20617070726f76616c20746f2063757272656e74206f776e6560008201527f7200000000000000000000000000000000000000000000000000000000000000602082015250565b60006120ef6021836119cd565b91506120fa82612093565b604082019050919050565b6000602082019050818103600083015261211e816120e2565b9050919050565b7f4552433732313a20617070726f76652063616c6c6572206973206e6f74206f7760008201527f6e6572206e6f7220617070726f76656420666f7220616c6c0000000000000000602082015250565b60006121816038836119cd565b915061218c82612125565b604082019050919050565b600060208201905081810360008301526121b081612174565b9050919050565b7f4552433732313a207472616e736665722063616c6c6572206973206e6f74206f60008201527f776e6572206e6f7220617070726f766564000000000000000000000000000000602082015250565b60006122136031836119cd565b915061221e826121b7565b604082019050919050565b6000602082019050818103600083015261224281612206565b9050919050565b7f4552433732313a206f776e657220717565727920666f72206e6f6e657869737460008201527f656e7420746f6b656e0000000000000000000000000000000000000000000000602082015250565b60006122a56029836119cd565b91506122b082612249565b604082019050919050565b600060208201905081810360008301526122d481612298565b9050919050565b7f4552433732313a2062616c616e636520717565727920666f7220746865207a6560008201527f726f206164647265737300000000000000000000000000000000000000000000602082015250565b6000612337602a836119cd565b9150612342826122db565b604082019050919050565b600060208201905081810360008301526123668161232a565b9050919050565b7f45524337323155524953746f726167653a2055524920717565727920666f722060008201527f6e6f6e6578697374656e7420746f6b656e000000000000000000000000000000602082015250565b60006123c96031836119cd565b91506123d48261236d565b604082019050919050565b600060208201905081810360008301526123f8816123bc565b9050919050565b600081905092915050565b6000612415826119c2565b61241f81856123ff565b935061242f8185602086016119de565b80840191505092915050565b6000612447828561240a565b9150612453828461240a565b91508190509392505050565b7f4552433732313a206f70657261746f7220717565727920666f72206e6f6e657860008201527f697374656e7420746f6b656e0000000000000000000000000000000000000000602082015250565b60006124bb602c836119cd565b91506124c68261245f565b604082019050919050565b600060208201905081810360008301526124ea816124ae565b9050919050565b7f4552433732313a207472616e736665722066726f6d20696e636f72726563742060008201527f6f776e6572000000000000000000000000000000000000000000000000000000602082015250565b600061254d6025836119cd565b9150612558826124f1565b604082019050919050565b6000602082019050818103600083015261257c81612540565b9050919050565b7f4552433732313a207472616e7366657220746f20746865207a65726f2061646460008201527f7265737300000000000000000000000000000000000000000000000000000000602082015250565b60006125df6024836119cd565b91506125ea82612583565b604082019050919050565b6000602082019050818103600083015261260e816125d2565b9050919050565b7f4e487b7100000000000000000000000000000000000000000000000000000000600052601160045260246000fd5b600061264f82611a7d565b915061265a83611a7d565b92508282101561266d5761266c612615565b5b828203905092915050565b600061268382611a7d565b915061268e83611a7d565b9250827fffffffffffffffffffffffffffffffffffffffffffffffffffffffffffffffff038211156126c3576126c2612615565b5b828201905092915050565b7f4552433732313a20617070726f766520746f2063616c6c657200000000000000600082015250565b60006127046019836119cd565b915061270f826126ce565b602082019050919050565b60006020820190508181036000830152612733816126f7565b9050919050565b7f4552433732313a207472616e7366657220746f206e6f6e20455243373231526560008201527f63656976657220696d706c656d656e7465720000000000000000000000000000602082015250565b60006127966032836119cd565b91506127a18261273a565b604082019050919050565b600060208201905081810360008301526127c581612789565b9050919050565b7f4552433732314d657461646174613a2055524920717565727920666f72206e6f60008201527f6e6578697374656e7420746f6b656e0000000000000000000000000000000000602082015250565b6000612828602f836119cd565b9150612833826127cc565b604082019050919050565b600060208201905081810360008301526128578161281b565b9050919050565b7f4552433732313a206d696e7420746f20746865207a65726f2061646472657373600082015250565b60006128946020836119cd565b915061289f8261285e565b602082019050919050565b600060208201905081810360008301526128c381612887565b9050919050565b7f4552433732313a20746f6b656e20616c7265616479206d696e74656400000000600082015250565b6000612900601c836119cd565b915061290b826128ca565b602082019050919050565b6000602082019050818103600083015261292f816128f3565b9050919050565b7f45524337323155524953746f726167653a2055524920736574206f66206e6f6e60008201527f6578697374656e7420746f6b656e000000000000000000000000000000000000602082015250565b6000612992602e836119cd565b915061299d82612936565b604082019050919050565b600060208201905081810360008301526129c181612985565b9050919050565b600081519050919050565b600082825260208201905092915050565b60006129ef826129c8565b6129f981856129d3565b9350612a098185602086016119de565b612a1281611a11565b840191505092915050565b6000608082019050612a326000830187611b12565b612a3f6020830186611b12565b612a4c6040830185611c28565b8181036060830152612a5e81846129e4565b905095945050505050565b600081519050612a7881611933565b92915050565b600060208284031215612a9457612a936118fd565b5b6000612aa284828501612a69565b91505092915050565b6000612ab682611a7d565b91507fffffffffffffffffffffffffffffffffffffffffffffffffffffffffffffffff821415612ae957612ae8612615565b5b600182019050919050565b7f4e487b7100000000000000000000000000000000000000000000000000000000600052601260045260246000fd5b6000612b2e82611a7d565b9150612b3983611a7d565b925082612b4957612b48612af4565b5b828204905092915050565b6000612b5f82611a7d565b9150612b6a83611a7d565b925082612b7a57612b79612af4565b5b828206905092915050565b7f4e487b7100000000000000000000000000000000000000000000000000000000600052603260045260246000fdfea26469706673582212209af36b081a3370bb7b6db0474383dce273196672f1ae1fc97e9a489de4d94e0a64736f6c63430008090033",
  "immutableReferences": {},
  "source": "// SPDX-License-Identifier: MIT\npragma solidity >=0.4.22 <0.9.0;\n\nimport \"@openzeppelin/contracts/utils/Counters.sol\";\nimport \"@openzeppelin/contracts/token/ERC721/extensions/ERC721URIStorage.sol\";\nimport \"@openzeppelin/contracts/token/ERC721/extensions/ERC721Enumerable.sol\";\nimport \"@openzeppelin/contracts/token/ERC721/ERC721.sol\";\n\n\n\ncontract NFT is ERC721URIStorage{\n\n    using Counters for Counters.Counter;\n    Counters.Counter private nftTokenId;\n\n\n    address contractAddress;\n\n    constructor(address marketplaceAddress)ERC721(\"arabicNFt\",\"arNFT\"){\n\n        contractAddress = marketplaceAddress;\n\n    }\n\n    function createNFtToken(string memory nftTokenURl)public  returns (uint256){\n        nftTokenId.increment();\n        uint256 id = nftTokenId.current();\n        _mint(msg.sender,id);\n\n        _setTokenURI(id,nftTokenURl);\n   \n        setApprovalForAll  (contractAddress,true);\n    \n\n        return id;\n    \n    }\n\n\n\n}",
  "sourcePath": "/Users/scarnes/Simpli/contracts/NFT.sol",
  "compiler": {
    "name": "solc",
    "version": "0.8.9+commit.e5eed63a.Emscripten.clang"
  },
  "schemaVersion": "3.4.7",
  "updatedAt": "2022-05-31T17:12:10.469Z",
  "networkType": "ethereum",
  "devdoc": {
    "kind": "dev",
    "methods": {
      "approve(address,uint256)": {
        "details": "See {IERC721-approve}."
      },
      "balanceOf(address)": {
        "details": "See {IERC721-balanceOf}."
      },
      "getApproved(uint256)": {
        "details": "See {IERC721-getApproved}."
      },
      "isApprovedForAll(address,address)": {
        "details": "See {IERC721-isApprovedForAll}."
      },
      "name()": {
        "details": "See {IERC721Metadata-name}."
      },
      "ownerOf(uint256)": {
        "details": "See {IERC721-ownerOf}."
      },
      "safeTransferFrom(address,address,uint256)": {
        "details": "See {IERC721-safeTransferFrom}."
      },
      "safeTransferFrom(address,address,uint256,bytes)": {
        "details": "See {IERC721-safeTransferFrom}."
      },
      "setApprovalForAll(address,bool)": {
        "details": "See {IERC721-setApprovalForAll}."
      },
      "supportsInterface(bytes4)": {
        "details": "See {IERC165-supportsInterface}."
      },
      "symbol()": {
        "details": "See {IERC721Metadata-symbol}."
      },
      "tokenURI(uint256)": {
        "details": "See {IERC721Metadata-tokenURI}."
      },
      "transferFrom(address,address,uint256)": {
        "details": "See {IERC721-transferFrom}."
      }
    },
    "version": 1
  },
  "userdoc": {
    "kind": "user",
    "methods": {},
    "version": 1
  }
}